ACCT000001MAISON DUPONT SARL            CH00125000000A                          
ACCT000002ANNA MUELLER                  SV00008450050A                          
ACCT000003CREDIT TEST HOLDING           CH00999999999A                          
ACCT000004DORMANT LEGACY ACCOUNT        SV00000000000C                          
ACCT000005BANQUE PRIVEE LEMAN           SV00275000000A                          
ACCT000006FONDS HELVETIA                SV00050000000A                          
ACCT000007FROZEN INDUSTRIES             CH00001234567F                          
